{
  "contractName": "Moneygram",
  "abi": [
    {
      "inputs": [],
      "stateMutability": "nonpayable",
      "type": "constructor"
    },
    {
      "anonymous": false,
      "inputs": [
        {
          "indexed": false,
          "internalType": "uint256",
          "name": "id",
          "type": "uint256"
        },
        {
          "indexed": false,
          "internalType": "string",
          "name": "hash",
          "type": "string"
        },
        {
          "indexed": false,
          "internalType": "string",
          "name": "description",
          "type": "string"
        },
        {
          "indexed": false,
          "internalType": "uint256",
          "name": "tipAmount",
          "type": "uint256"
        },
        {
          "indexed": false,
          "internalType": "address",
          "name": "author",
          "type": "address"
        }
      ],
      "name": "ImageCreated",
      "type": "event"
    },
    {
      "anonymous": false,
      "inputs": [
        {
          "indexed": false,
          "internalType": "uint256",
          "name": "id",
          "type": "uint256"
        },
        {
          "indexed": false,
          "internalType": "string",
          "name": "hash",
          "type": "string"
        },
        {
          "indexed": false,
          "internalType": "string",
          "name": "description",
          "type": "string"
        },
        {
          "indexed": false,
          "internalType": "uint256",
          "name": "tipAmount",
          "type": "uint256"
        },
        {
          "indexed": false,
          "internalType": "address",
          "name": "author",
          "type": "address"
        }
      ],
      "name": "ImageTipped",
      "type": "event"
    },
    {
      "inputs": [],
      "name": "imageCount",
      "outputs": [
        {
          "internalType": "uint256",
          "name": "",
          "type": "uint256"
        }
      ],
      "stateMutability": "view",
      "type": "function",
      "constant": true
    },
    {
      "inputs": [
        {
          "internalType": "uint256",
          "name": "",
          "type": "uint256"
        }
      ],
      "name": "images",
      "outputs": [
        {
          "internalType": "uint256",
          "name": "id",
          "type": "uint256"
        },
        {
          "internalType": "string",
          "name": "hash",
          "type": "string"
        },
        {
          "internalType": "string",
          "name": "description",
          "type": "string"
        },
        {
          "internalType": "uint256",
          "name": "tipAmount",
          "type": "uint256"
        },
        {
          "internalType": "address",
          "name": "author",
          "type": "address"
        }
      ],
      "stateMutability": "view",
      "type": "function",
      "constant": true
    },
    {
      "inputs": [
        {
          "internalType": "string",
          "name": "_imgHash",
          "type": "string"
        },
        {
          "internalType": "string",
          "name": "_description",
          "type": "string"
        }
      ],
      "name": "uploadImage",
      "outputs": [],
      "stateMutability": "nonpayable",
      "type": "function"
    },
    {
      "inputs": [
        {
          "internalType": "uint256",
          "name": "_id",
          "type": "uint256"
        }
      ],
      "name": "tipOwnerImage",
      "outputs": [],
      "stateMutability": "payable",
      "type": "function",
      "payable": true
    }
  ],
  "bytecode": "0x60806040526000805534801561001457600080fd5b50610caa806100246000396000f3fe60806040526004361061003f5760003560e01c8063703a925714610044578063848564821461006057806392053b63146100a1578063a91b8314146100cc575b600080fd5b61005e6004803603810190610059919061084f565b6100f5565b005b34801561006c57600080fd5b506100876004803603810190610082919061084f565b61040e565b60405161009895949392919061095a565b60405180910390f35b3480156100ad57600080fd5b506100b6610574565b6040516100c391906108de565b60405180910390f35b3480156100d857600080fd5b506100f360048036038101906100ee91906107e3565b61057a565b005b6000600160008381526020019081526020016000206040518060a00160405290816000820154815260200160018201805461012f90610b13565b80601f016020809104026020016040519081016040528092919081815260200182805461015b90610b13565b80156101a85780601f1061017d576101008083540402835291602001916101a8565b820191906000526020600020905b81548152906001019060200180831161018b57829003601f168201915b505050505081526020016002820180546101c190610b13565b80601f01602080910402602001604051908101604052809291908181526020018280546101ed90610b13565b801561023a5780601f1061020f5761010080835404028352916020019161023a565b820191906000526020600020905b81548152906001019060200180831161021d57829003601f168201915b50505050508152602001600382015481526020016004820160009054906101000a900473ffffffffffffffffffffffffffffffffffffffff1673ffffffffffffffffffffffffffffffffffffffff1673ffffffffffffffffffffffffffffffffffffffff168152505090506000816080015190508073ffffffffffffffffffffffffffffffffffffffff166108fc349081150290604051600060405180830381858888f193505050501580156102f4573d6000803e3d6000fd5b503482606001516103059190610a2d565b82606001818152505081600160008581526020019081526020016000206000820151816000015560208201518160010190805190602001906103489291906106c3565b5060408201518160020190805190602001906103659291906106c3565b506060820151816003015560808201518160040160006101000a81548173ffffffffffffffffffffffffffffffffffffffff021916908373ffffffffffffffffffffffffffffffffffffffff1602179055509050507f1be5317bca8d3f70dc1efe89958be71bff36cdca33fc00a6423e25eb2f1d492f83836020015184604001518560600151866080015160405161040195949392919061095a565b60405180910390a1505050565b600160205280600052604060002060009150905080600001549080600101805461043790610b13565b80601f016020809104026020016040519081016040528092919081815260200182805461046390610b13565b80156104b05780601f10610485576101008083540402835291602001916104b0565b820191906000526020600020905b81548152906001019060200180831161049357829003601f168201915b5050505050908060020180546104c590610b13565b80601f01602080910402602001604051908101604052809291908181526020018280546104f190610b13565b801561053e5780601f106105135761010080835404028352916020019161053e565b820191906000526020600020905b81548152906001019060200180831161052157829003601f168201915b5050505050908060030154908060040160009054906101000a900473ffffffffffffffffffffffffffffffffffffffff16905085565b60005481565b60008081548092919061058c90610b76565b91905055506040518060a001604052806000548152602001838152602001828152602001600081526020013373ffffffffffffffffffffffffffffffffffffffff16815250600160008054815260200190815260200160002060008201518160000155602082015181600101908051906020019061060b9291906106c3565b5060408201518160020190805190602001906106289291906106c3565b506060820151816003015560808201518160040160006101000a81548173ffffffffffffffffffffffffffffffffffffffff021916908373ffffffffffffffffffffffffffffffffffffffff1602179055509050507fc1d8dfa99b3f84f95d3f0bc4a768addeb97b83b20aef7f9cb6729e126bafd2f960005483836000336040516106b79594939291906108f9565b60405180910390a15050565b8280546106cf90610b13565b90600052602060002090601f0160209004810192826106f15760008555610738565b82601f1061070a57805160ff1916838001178555610738565b82800160010185558215610738579182015b8281111561073757825182559160200191906001019061071c565b5b5090506107459190610749565b5090565b5b8082111561076257600081600090555060010161074a565b5090565b6000610779610774846109e0565b6109bb565b90508281526020810184848401111561079157600080fd5b61079c848285610ad1565b509392505050565b600082601f8301126107b557600080fd5b81356107c5848260208601610766565b91505092915050565b6000813590506107dd81610c5d565b92915050565b600080604083850312156107f657600080fd5b600083013567ffffffffffffffff81111561081057600080fd5b61081c858286016107a4565b925050602083013567ffffffffffffffff81111561083957600080fd5b610845858286016107a4565b9150509250929050565b60006020828403121561086157600080fd5b600061086f848285016107ce565b91505092915050565b61088181610a83565b82525050565b61089081610abf565b82525050565b60006108a182610a11565b6108ab8185610a1c565b93506108bb818560208601610ae0565b6108c481610c4c565b840191505092915050565b6108d881610ab5565b82525050565b60006020820190506108f360008301846108cf565b92915050565b600060a08201905061090e60008301886108cf565b81810360208301526109208187610896565b905081810360408301526109348186610896565b90506109436060830185610887565b6109506080830184610878565b9695505050505050565b600060a08201905061096f60008301886108cf565b81810360208301526109818187610896565b905081810360408301526109958186610896565b90506109a460608301856108cf565b6109b16080830184610878565b9695505050505050565b60006109c56109d6565b90506109d18282610b45565b919050565b6000604051905090565b600067ffffffffffffffff8211156109fb576109fa610c1d565b5b610a0482610c4c565b9050602081019050919050565b600081519050919050565b600082825260208201905092915050565b6000610a3882610ab5565b9150610a4383610ab5565b9250827fffffffffffffffffffffffffffffffffffffffffffffffffffffffffffffffff03821115610a7857610a77610bbf565b5b828201905092915050565b6000610a8e82610a95565b9050919050565b600073ffffffffffffffffffffffffffffffffffffffff82169050919050565b6000819050919050565b6000610aca82610ab5565b9050919050565b82818337600083830152505050565b60005b83811015610afe578082015181840152602081019050610ae3565b83811115610b0d576000848401525b50505050565b60006002820490506001821680610b2b57607f821691505b60208210811415610b3f57610b3e610bee565b5b50919050565b610b4e82610c4c565b810181811067ffffffffffffffff82111715610b6d57610b6c610c1d565b5b80604052505050565b6000610b8182610ab5565b91507fffffffffffffffffffffffffffffffffffffffffffffffffffffffffffffffff821415610bb457610bb3610bbf565b5b600182019050919050565b7f4e487b7100000000000000000000000000000000000000000000000000000000600052601160045260246000fd5b7f4e487b7100000000000000000000000000000000000000000000000000000000600052602260045260246000fd5b7f4e487b7100000000000000000000000000000000000000000000000000000000600052604160045260246000fd5b6000601f19601f8301169050919050565b610c6681610ab5565b8114610c7157600080fd5b5056fea2646970667358221220ba835d19f4def8aea710768078efed373218808b2f1f7adc21d17004d4ff1dc064736f6c63430008040033",
  "immutableReferences": {},
  "source": "// SPDX-License-Identifier: MIT\npragma solidity ^0.8.4;\n\ncontract Moneygram {\n    constructor() {}\n\n    uint256 public imageCount = 0;\n    mapping(uint256 => Image) public images;\n\n    event ImageCreated(\n        uint256 id,\n        string hash,\n        string description,\n        uint256 tipAmount,\n        address author\n    );\n\n    event ImageTipped(\n        uint256 id,\n        string hash,\n        string description,\n        uint256 tipAmount,\n        address author\n    );\n\n    struct Image {\n        uint256 id;\n        string hash;\n        string description;\n        uint256 tipAmount;\n        address author;\n    }\n\n    function uploadImage(string memory _imgHash, string memory _description)\n        public\n    {\n        imageCount++;\n        images[imageCount] = Image(\n            imageCount,\n            _imgHash,\n            _description,\n            0,\n            msg.sender\n        );\n\n        emit ImageCreated(imageCount, _imgHash, _description, 0, msg.sender);\n    }\n\n    function tipOwnerImage(uint256 _id) public payable {\n        Image memory _image = images[_id];\n\n        address _author = _image.author;\n\n        payable(_author).transfer(msg.value);\n\n        _image.tipAmount = _image.tipAmount + msg.value;\n\n        images[_id] = _image;\n\n        emit ImageTipped(\n            _id,\n            _image.hash,\n            _image.description,\n            _image.tipAmount,\n            _image.author\n        );\n    }\n}\n",
  "sourcePath": "/Users/rhandalltimtiman/projects/blockchain/decentagram/contracts/Moneygram.sol",
  "compiler": {
    "name": "solc",
    "version": "0.8.4+commit.c7e474f2.Emscripten.clang"
  },
  "schemaVersion": "3.4.1",
  "updatedAt": "2021-05-27T02:18:46.551Z",
  "networkType": "ethereum",
  "devdoc": {
    "kind": "dev",
    "methods": {},
    "version": 1
  },
  "userdoc": {
    "kind": "user",
    "methods": {},
    "version": 1
  }
}